S01800006275696C642F6D6963617A2F6D61696E2E73726563E5
S11300000C9449000C9468000C9468000C946800EB
S11300100C9468000C9468000C9468000C946800BC
S11300200C9468000C9468000C9468000C946800AC
S11300300C9468000C9468000C9468000C948F0174
S11300400C947E010C9468000C9468000C94680075
S11300500C9468000C9468000C9468000C9468007C
S11300600C9468000C9468000C9468000C9468006C
S11300700C9468000C9468000C9468000C9468005C
S11300800C9468000C9468000C94680000081C1818
S1130090141011241FBECFEFD0E1DEBFCDBF11E09D
S11300A0A0E0B1E0ECEFF7E000E00BBF02C0079086
S11300B00D92A030B107D9F711E0A0E0B1E001C082
S11300C01D92A333B107E1F70E94FD020C94FD03D6
S11300D00C9400008FB7F894992708958FBF089562
S11300E07FB7F89462B720910001309101014091EB
S11300F002015091030106B601FE0FC081B792B709
S1130100280F311D411D511D2F5F3F4F4F4F5F4F32
S1130110290F311D411D511D04C0260F311D411DE4
S1130120511D872F99278FBFCA01B9010895282F20
S11301309FB7F894E82FFF27E85FFE4F80818F3F39
S113014081F4E0913201E21771F40BC020932F0186
S113015004C0FF27E85FFE4F20832093320120E094
S113016007C025E005C080912F018F3F91F7EECFA6
S1130170892F99278FBF822F99270895DF92EF92B5
S1130180FF920F931F938FB7F894282F3327D22E03
S113019091B782B746B7981711F041FF02C02FBF3D
S11301A068C080910B018823D1F10E947000E09017
S11301B02701F09028010091290110912A01209132
S11301C004013091050140910601509107016E1917
S11301D07F09800B910B621773078407950728F03A
S11301E010920B0186EE71E01CC02E0D3F1D401FC6
S11301F0511F8091000190910101A0910201B091E1
S11302000301281B390B4A0B5B0B273E31054105C3
S1130210510528F4822F223018F482E001C086EEC2
S113022070E0682F615000B601FCFDCF82B76817FB
S113023009F46F5F209100013091010140910201A6
S113024050910301DA01C9010196A11DB11D860F68
S1130250911DA11DB11D82179307A407B50710F4C2
S1130260622F609561BFDFBE772319F080E00E94A2
S113027097001F910F91FF90EF90DF900895AFB713
S1130280F894BB27E1E0E0930B016093270170939E
S113029028018093290190932A012093040130932B
S11302A005014093060150930701AFBF0E94BE00B1
S11302B00895DF92EF92FF920F931F93D82E7A0145
S11302C08B010E94700029E0D29EF0011124E45FAA
S11302D0FE4F6083718382839383E482F582068375
S11302E0178380858E7F8260808781E00E949700DB
S11302F01F910F91FF90EF90DF9008951F920F923E
S11303000FB60F9211248F9383B783BF00B600FCFE
S1130310FDCF8F910F900FBE0F901F9018951F92D5
S11303200F920FB60F9211242F933F934F935F9325
S11303306F937F938F939F93AF93BF93EF93FF93A9
S113034083B783BF00B600FCFDCF81B79927019620
S1130350AA27BB272091000130910101409102019D
S113036050910301280F391F4A1F5B1F209300017E
S113037030930101409302015093030178940E9449
S1130380BE00FF91EF91BF91AF919F918F917F91AB
S11303906F915F914F913F912F910F900FBE0F90EE
S11303A01F901895AF92BF92CF92DF92EF92FF9277
S11303B00F931F93CF93DF935B016C01C0E0D0E0F8
S11303C0ECE0F1E0608561FF3CC020813181428135
S11303D05381E480F58006811781D601C501821B13
S11303E0930BA40BB50B8E159F05A007B10748F11D
S11303F060FF03C06D7F608708C02E0D3F1D401F46
S1130400511F2083318342835383C13059F0C1305B
S113041018F0C230E1F40CC08FB7F89499272BB3CD
S113042034E00BC08FB7F89499272BB332E005C0A2
S11304308FB7F89499272BB331E023272BBB8FBFB9
S113044006C021963996C330D10509F0BBCF81E0AF
S11304500E949700DF91CF911F910F91FF90EF9031
S1130460DF90CF90BF90AF900895AF92BF92CF929C
S1130470DF92EF92FF920F931F930E9470005B0133
S11304806C018FB7F894992710920B018FBF8FEFEF
S1130490E82E8FEFF82E8FEF082F8FE7182F60E0EC
S11304A0ECE0F1E0808581FF1CC080819181A28114
S11304B0B381A6019501281B390B4A0B5B0BDA01AA
S11304C0C9012481358146815781281B390B4A0B88
S11304D05B0B2E153F05400751071CF479018A0177
S11304E061E0399631E0E732F307E1F66623D9F0AB
S11304F01E141F04100611062CF0C601B5010E943B
S1130500D20111C0E0922B01F0922C0100932D0135
S113051010932E0181E080930A01A8019701C6017E
S1130520B5010E943F011F910F91FF90EF90DF9062
S1130530CF90BF90AF900895EF92FF920F931F93C7
S113054080910A01882361F520912B0130912C01BF
S113055040912D0150912E01EFB7F894FF2760913F
S11305602701709128018091290190912A01E0903E
S11305700401F090050100910601109107016E0D30
S11305807F1D801F911FEFBF20932B0130932C01FF
S113059040932D0150932E0110920A010E943F01B5
S11305A00E9470000E94D2011F910F91FF90EF9062
S11305B0089580912F018F3FE9F0282F3327F90107
S11305C0E85FFE4F808180932F018F3F11F4809369
S11305D032018FEF80832F3F69F0222319F02130FD
S11305E021F005C00E949C0202C00E94350281E0F5
S11305F090E0089580E090E008951F931FB7F89469
S113060042E050E06FEF70E088E091E00E94F60372
S11306108FEF80932F018093320181E08EBD88E0BB
S113062080BF83E083BF8CB59DB54AE72CB53DB54B
S11306302817390708F44150442311F0C901F6CFB3
S113064092B782B78917E9F32CB53DB592B782B753
S11306508917E9F38CB59DB5821B930B409625E071
S1130660969587952A95E1F790933101809330010F
S113067013BE83B78EBD8EB580BF12BE1DBC1CBC1D
S11306808FEF86BF86B780937C0080B799278770E9
S11306909070892BD1F7D29AD19AD09ADA9AD99AB2
S11306A0D89A15BA8FEF84BBD498DC980E94D902EB
S11306B08823E1F780B7886080BF8BE083BF86EE34
S11306C081BF87B7826087BF0E94BE000E94D902A3
S11306D08823E1F7812F99278FBF78944AEF50E060
S11306E060E070E080E00E94590144EF51E060E076
S11306F070E081E00E94590148EE53E060E070E050
S113070082E00E9459018FB7F894482F55274BC0B7
S113071087B7992783709070892B19F4E5E0F0E08E
S113072013C080B7992787709070892BD1F781B750
S113073092B7891B8C3030F082B7853F18F4E3E020
S1130740F0E002C0E2E0F0E087B7887BC1F480917A
S11307507D008B7FA1F46E9912C08AB190919A00AA
S1130760892B887161F48091740082FD08C0379BE5
S113077003C081E090E005C085E090E002C080E025
S113078090E025B78E1708F4E82FFF27E457FF4FB2
S1130790E491237E2062E22BE5BF78948895F89457
S11307A085B78F7D85BF80912F018F3F09F4B0CF2E
S11307B0282F3327F901E85FFE4F808180932F01B2
S11307C08F3F11F4809332018FEF80832F3F09F420
S11307D09FCF4FBF222321F0213009F094CF03C0D3
S11307E00E949C0290CF0E9435028DCFDC0101C093
S10F07F06D9341505040E0F70895FFCF96
S9030000FC
