S01800006275696C642F6D6963617A2F6D61696E2E73726563E5
S11300000C9449000C9468000C9468000C946800EB
S11300100C9468000C9468000C9468000C946800BC
S11300200C9468000C9468000C9468000C946800AC
S11300300C9468000C9468000C9468000C946C0197
S11300400C945B010C9468000C9468000C94680098
S11300500C9468000C9468000C9468000C9468007C
S11300600C9468000C9468000C9468000C9468006C
S11300700C9468000C9468000C9468000C9468005C
S11300800C9468000C9468000C94680000081C1818
S1130090141011241FBECFEFD0E1DEBFCDBF1BE093
S11300A0A0E0B1E0E2EBF8E000E00BBF02C0079093
S11300B00D92A038B107D9F71BE0A0E8BBE001C05E
S11300C01D92A43CB107E1F70E9465030C94580407
S11300D00C9400008FB7F894992708958FBF089562
S11300E07FB7F89462B72091880B3091890B4091C7
S11300F08A0B50918B0B06B601FE0FC081B792B7E5
S1130100280F311D411D511D2F5F3F4F4F4F5F4F32
S1130110290F311D411D511D04C0260F311D411DE4
S1130120511D872F99278FBFCA01B9010895282F20
S11301309FB7F894E82FFF27E057F44F80818F3F53
S113014081F4E091C30BE21771F40BC02093C00B50
S113015004C0FF27E057F44F20832093C30B20E013
S113016007C025E005C08091C00B8F3F91F7EECF0B
S1130170892F99278FBF822F99270895DF92EF92B5
S1130180FF920F931F938FB7F894282F3327D22E03
S113019091B782B746B7981711F041FF02C02FBF3D
S11301A06AC08091930B8823E1F10E947000E09073
S11301B0B80BF090B90B0091BA0B1091BB0B2091C6
S11301C08C0B30918D0B40918E0B50918F0B6E19CF
S11301D07F09800B910B621773078407950720F042
S11301E01092930B71E01EC02E0D3F1D401F511F36
S11301F08091880B9091890BA0918A0BB0918B0B05
S1130200281B390B4A0B5B0B273E31054105510571
S113021040F4822F223010F070E005C070E082E0DC
S113022002C070E086EE682F615000B601FCFDCF7D
S113023082B7681709F46F5F2091880B3091890B9E
S113024040918A0B50918B0BDA01C9010196A11DD3
S1130250B11D860F911DA11DB11D82179307A4071F
S1130260B50710F4622F609561BFDFBE772319F0E4
S113027080E00E9497001F910F91FF90EF90DF9014
S11302800895AFB7F894BB27E1E0E093930B609334
S1130290B80B7093B90B8093BA0B9093BB0B20935C
S11302A08C0B30938D0B40938E0B50938F0BAFBF01
S11302B00E94BE0008951F920F920FB60F92112450
S11302C08F9383B783BF00B600FCFDCF8F910F904F
S11302D00FBE0F901F9018951F920F920FB60F929A
S11302E011242F933F934F935F936F937F938F9337
S11302F09F93AF93BF93EF93FF9383B783BF00B6EE
S113030000FCFDCF81B799270196AA27BB2720912E
S1130310880B3091890B40918A0B50918B0B280FDD
S1130320391F4A1F5B1F2093880B3093890B40931E
S11303308A0B50938B0B78940E94BE00FF91EF912F
S1130340BF91AF919F918F917F916F915F914F91E9
S11303503F912F910F900FBE0F901F901895EF9221
S11303600F931F93AE2D99E0899FF0011124EC5651
S1130370F44F4083518362837383048315832683FC
S11303803783A17080858E7F8A2B8260808781E08D
S11303900E9497001F910F91EF900895AF92BF9222
S11303A0CF92DF92EF92FF920F931F93F82E5A0190
S11303B06B010E947000AB01BC01EE249601850123
S11303C08F2D0E94AF011F910F91FF90EF90DF904E
S11303D0CF90BF90AF900895AF92BF92CF92DF922B
S11303E0EF92FF920F931F93F82E5A016B010E9414
S11303F07000AB01BC0181E0E82E960185018F2DD0
S11304000E94AF011F910F91FF90EF90DF90CF906A
S1130410BF90AF900895AF92BF92CF92DF92EF92C8
S1130420FF920F931F93CF93DF935B016C01C0E0A6
S1130430D0E0E4E9FBE0608561FF6BC0208131819D
S113044042815381E480F58006811781D601C5017C
S1130450821B930BA40BB50B8E159F05A007B10748
S113046008F457C060FF03C06D7F608708C02E0D7D
S11304703F1D401F511F2083318342835383CC236C
S113048021F0C13009F04BC021C08091800B9091C4
S1130490810BFC01EE0FFF1FE050FF4F20813181E3
S11304A03093850B2093840B01969093810B80935A
S11304B0800B805A924021F41092810B1092800B91
S11304C042E050E060E070E082E020C08091820B66
S11304D09091830BFC01EE0FFF1FE05CF94F20812C
S11304E031813093870B2093860B01969093830B75
S11304F08093820B805A924021F41092830B1092C5
S1130500820B42E050E060E070E083E00E94EC0186
S113051006C021963996C430D10509F08CCF81E00C
S11305200E949700DF91CF911F910F91FF90EF9060
S1130530DF90CF90BF90AF900895AF92BF92CF92CB
S1130540DF92EF92FF920F931F930E9470005B0162
S11305506C018FB7F89499271092930B8FBF4FEFCC
S1130560E42E4FEFF42E4FEF042F4FE7142F60E0EB
S1130570E4E9FBE0808581FF1CC080819181A28138
S1130580B381A6019501281B390B4A0B5B0BDA01D9
S1130590C9012481358146815781281B390B4A0BB7
S11305A05B0B2E153F05400751071CF479018A01A6
S11305B061E039963BE0E83BF307E1F66623D9F0C6
S11305C01E141F04100611062CF0C601B5010E946A
S11305D00B0211C0E092BC0BF092BD0B0093BE0B5A
S11305E01093BF0B81E08093920BA8019701C60181
S11305F0B5010E9441011F910F91FF90EF90DF9090
S1130600CF90BF90AF900895EF92FF920F931F93F6
S11306108091920B882361F52091BC0B3091BD0B26
S11306204091BE0B5091BF0BEFB7F894FF27609138
S1130630B80B7091B90B8091BA0B9091BB0BE09001
S11306408C0BF0908D0B00918E0B10918F0B6E0D17
S11306507F1D801F911FEFBF2093BC0B3093BD0BF8
S11306604093BE0B5093BF0B1092920B0E9441011A
S11306700E9470000E940B021F910F91FF90EF9057
S113068008958091C00B8F3FE9F0282F3327F9019B
S1130690E057F44F80818093C00B8F3F11F4809317
S11306A0C30B8FEF80832F3F69F0222319F0213091
S11306B021F005C00E94040302C00E949D0281E053
S11306C090E0089580E090E008951F931FB7F89498
S11306D042E050E06FEF70E080E99BE00E9451043B
S11306E08FEF8093C00B8093C30B81E08EBD88E0B5
S11306F080BF83E083BF8CB59DB54AE72CB53DB57B
S11307002817390708F44150442311F0C901F6CFE2
S113071092B782B78917E9F32CB53DB592B782B782
S11307208917E9F38CB59DB5821B930B409655E070
S1130730969587955A95E1F79093C20B8093C10BD8
S113074013BE83B78EBD8EB580BF12BE1DBC1CBC4C
S11307508FEF86BF86B780937C0080B79927877018
S11307609070892BD1F715BA8FEF84BBD498DC989D
S11307700E9441038823E1F780B7886080BF8BE043
S113078083BF86EE81BF87B7826087BF0E94BE00A9
S11307900E9441038823E1F7812F99278FBF789422
S11307A048EE53E060E070E080E00E94CE0140ED4E
S11307B057E060E070E081E00E94CE018FB7F894CA
S11307C0482F55274BC087B7992783709070892B82
S11307D019F4E5E0F0E013C080B7992787709070B2
S11307E0892BD1F781B792B7891B8C3030F082B74F
S11307F0853F18F4E3E0F0E002C0E2E0F0E087B700
S1130800887BC1F480917D008B7FA1F46E9912C026
S11308108AB190919A00892B887161F48091740057
S113082082FD08C0379B03C081E090E005C085E0ED
S113083090E002C080E090E025B78E1708F4E82F1E
S1130840FF27E457FF4FE491237E2062E22BE5BFAC
S113085078948895F89485B78F7D85BF8091C00B77
S11308608F3F09F4B0CF282F3327F901E057F44F15
S113087080818093C00B8F3F11F48093C30B8FEF63
S113088080832F3F09F49FCF4FBF222321F02130D3
S113089009F094CF03C00E94040390CF0E949D02EC
S11308A08DCFDC0101C06D9341505040E0F70895B5
S10508B0FFCF74
S11308B24A345F35F3362B384D391B399D3A1B3B8D
S11308C21A3CCA3C913DE83DF33EBD3F2140014103
S11308D23C41FC42D0420F424E4364425E43944345
S11308E2D8430F43074481434D4319427042D541D3
S11308F23942CB417240DA3F733ED53EB63D013EAA
S1130902C63B3D3A033AC0394A370C3826362A35B3
S113091266335C33C431A8311232BD2F8E2EC22D00
S1130922B72CB72BE22A7E2A632854287E27DB279A
S1130932AA26E225EF260C25D725E32570241325C4
S11309421F2565253925F725DB25DA256426FF26AB
S1130952A726C3261028312854296A2A322BC22BEF
S1130962572D4A2D152ED62FD62F33313A327133C5
S1130972683539369B371F38FC38513AE63B043C1C
S1130982373ED13D393E7F3F7840E73F40410D43FA
S11309929D42E542E9434844D1449E44A54443442C
S11309A2F6430D443445BC44524438441C4380430A
S11309B2CE423C429D40B5412740B63EDA3EA73D79
S11309C2AA3C8E3BF43BD93AF6396A38B7375236E9
S11309D2DF35D934B93366326131112FC52E032E76
S11309E2082E272DA02B4D2AA72A1C2A062A552772
S11309F27E2769283B284027752614271826882530
S1130A028A251027C6259A260426F92647278D27E4
S1130A12B827262916292129B72A022BE62BEE2CE0
S1130A22362E4E2F8C30DC2F2B319D313D3310343A
S1130A32E836AD38A3393F3A223B5F3CB13C483EED
S1130A42553F8C3F99418B41FA4298439F43D1438E
S1130A52754589452345D2451B45364642460A48D3
S1130A629B4671473B475D461E46044623467045F6
S1130A723F44C2444C44A142CD413442C840963F13
S1130A82363F0A3F783DC13CC23BEC394939E5382F
S1130A92EA370537EB345D343C339D320B31143085
S1130AA29C30FB2EB72EA62E762CFE2B5B2CCD294A
S1130AB2852A9729D429BE28E9283128952833285C
S1130AC240287B29132982280329C82847297B29FE
S1130AD2852A132B6A2BF92BA72C6A2D152F693023
S1130AE2802F1331D2322B322734DC34AA35253706
S1130AF29034E93587376738B4394B39903A463BF5
S1130B02183CF43D4F3F6D3E7E3FE3408941B7427E
S1130B129843F5423243C5436A443E4485443F44C4
S1130B222B445E44B1447A44B8434644DA42144303
S1130B32C4410A429E4260401C40DE3F8D3E893DD4
S1130B42AF3D2C3C6B3C3A3BC6389B3818387F3659
S1130B5241350234A732C03193311B301B2F762E1C
S1130B62482DC82CD02C1E2BF32AAC285A28C9286D
S1130B7256280C27A1275F265D2689260C26612587
S1130B82CC263A274D262D25F3262427FD26C326D7
S1130B9296273328E0285729452AB72AB82AFF2B53
S1130BA2DB2C282F892F99300132BB32633349342D
S1130BB268370239B739533AEE3A553DF53DD03EDE
S1130BC2683F3140934128420E429543F944C04460
S1130BD2E64433457646334744464247C146C14616
S1130BE24C4796460047F34635450E4664468545CE
S1130BF2254568453544FA430743EF418E40AB3FF0
S1130C0236405A3E6A3DF63CCE3B8D3AA23AD03744
S1130C127D3749360236D035C434B332A7319E31DA
S1130C22482F202F5B2E892D272CBF2B142CC32A4F
S1130C322E2A8F2912295B29D128BF28F0289C2922
S1130C428827E627FE29FC29952880291929B12A13
S1130C52B22A532BB52B852C0F2DC22D482F5A2E79
S1130C629C2FD731D931EE32463318366D36C7361A
S1130C72C03AA83A253DE13D5F3EDA3FFC4054408C
S1130C8266425A438B44E5440545FD45FE463447D6
S1130C923B48FE48DE49CC49A8490349054B3A4A38
S1130CA2654BAC4B4449754A394ACD48E248A3489E
S1130CB27947D7474C46C7459C4558453544684211
S1130CC20442C941C140E23E6E3F2C3D733CAA3B03
S1130CD25C3CBD39D5386D3713377F353E35CF335C
S1130CE28232A431FA317B30823010308D2EEB2DDA
S1130CF2AD2DCA2C362C5F2CA72AEA2ACF2B8B2B9C
S1130D02402CA52B862B602C9E2B4E2CD12C4F2CA9
S1130D120E2EE02D442E1B2F643002319B312832DB
S1130D2261321E3450348136C436FE370D3964398B
S1130D32F4369F371E380E39953AAC3A6A3C5C3D1C
S1130D42A83E0B3FDC3FA140E241FA422543E04387
S1130D52514415440F459D45DA454B4648466F4676
S1130D62BA4581453246A745C745B145E844904452
S1130D724D43ED435A42F3414142EB40213FEA3FA6
S1130D825C3E4E3DD93C8B3B3E3BC739F138DD36A8
S1130D92A636133560348633F331603182312E3016
S1130DA2732F5A2EFD2CB72CBE2C0E2A482A4B29FF
S1130DB26A29A9283029CD271D287D2727278D2791
S1130DC2FD26B227A127A427FE27C92814281B28F9
S1130DD20E295E299D2A482C452B9B2C192DFB2D6F
S1130DE26A2F5C305C3174311E33F132E8333536AC
S1130DF2F5840685E0848D8475846D84E484A484FA
S1130E0225845D84A38341831D834B83B3829882AB
S1130E12688204821982648178811181918083803D
S1130E224D80097F3A7F827E027E9F7ED97D8B7DB3
S1130E32AB7D177DCD7C557C757CEC7B9E7B3E7BAC
S1130E42657B837BB47A087BC57A6B7AF27AA37A60
S1130E52A37ACA7A9D7A687A8E7A227B057B5F7B33
S1130E62627BFE7B4C7BFA7BC27BBF7CBA7CAB7C15
S1130E725C7D7C7D717D407E6F7E607E8B7E2A7F71
S1130E82F47FD17FAF80978054814F811C825B8233
S1130E92C381A482FF82E0825E83E683B183758488
S1130EA220848F84E5839684CA848184CE842885B1
S1130EB20B8312834E83D282EE82E682D28299829D
S1130EC27C821B82FE81AD810D8291810781A78084
S1130ED28980D280E27FC47F327F0F7F8A7E087E40
S1130EE2FE7D917D747D5E7DA97CF67B857BCC7BCA
S1130EF2867B4E7B017B597A4A7AF979DF79397993
S1130F02E5792C79FB78C678F978E4781D796D78DF
S1130F122A799978E778AE78CA785F79D1781479A2
S1130F22227ABA7961796C7A407A6D7AB57AF27AF0
S1130F32BB7BEE7BF87B977CA87CBA7C947D6C7D32
S1130F42D87D3F7EDD7EAB7EC17EB07FD67F6F8053
S1130F52D18087800A819981438185813A829282F4
S1130F627882BF82BF82EE82F382648247834783A0
S1130F725B804A802280A57F5F7F837FF47FA67F88
S1130F82427F667F917EC17E817E427E967DCC7D4C
S1130F927D7D477DD87CCB7C4D7CC57B9C7BBA7B9D
S1130FA2277BF17AB07A237AFA7976796F786B783B
S1130FB28678FF770778CB775077BF766277FD76AE
S1130FC27B76BF76237614768C75B575A575B77561
S1130FD29775AA757875B875CF758D756B762F76FA
S1130FE28E76C9768A7606776577E7777F772B7868
S1130FF27778FF781D794679D079E379657A437AEF
S1131002D87A757BF47B067C327C997C077D2E7DB5
S11310129C7D9F7D067E397EE47E0C7FED7EE07EA4
S1131022887F697F9E7F0180EA7FFF7F27805780C8
S11310323C80FD7F6980A67FB77FDD7FB37F487FD9
S1131042277F307F037F557E427E837EC77DF47D7A
S1131052997D577DD67CE07CE47BDF7BA87B727B29
S1131062067B2F7A327AC6791F79027923796078DE
S11310725C78B978997715776A777F76FA76E3762A
S11310822776FD754E7602762A76D8755D756B7570
S1131092B975BD75A17529765976F775DD75097629
S11310A26F760477F6765677ED768B77C07743784A
S11310B28578ED78CB78B879A379D9799E7A607AF4
S11310C2377BFC7ABE7BF77BFF7B187CF17C917DBE
S11310D2A57DFE7D2F7E697E917E6C7EF87E857E67
S11310E2547F947F2680567FED7F987FA37F56801E
S11310F2D082C08268828B826882A88267820482DC
S11311020882AA81A8812A814C81C280BD804F8035
S1131112B57FA87F2480007F0E7F297E097EC07D53
S1131122127DFB7CDB7C377C677CD87BA47B1F7BBA
S1131132677BFF7A297AE47994790B7A867919792B
S1131142FE780C79D4784F788478AD7898782D78B5
S11311521E783478677875787F7884781878B578CB
S113116228792679577987791E7AE6792F7A797AD6
S1131172297B897B7A7BC77BA37C7D7C517D797DAE
S1131182A57D137E517EE77E0A7F327F787FA37F1F
S113119212805A80BB80A180928017827581258239
S11311A2148224829182758270820E8288823082B5
S11311B251809A8076806180E87FE77F867FA67F70
S11311C2B27FD57EE07EC17E657EB07E5C7E907D00
S11311D21F7ECF7C797CB37C837C0C7CBA7B867B40
S11311E2FD7AF17AC37A717A457A477961793079ED
S11311F29B78457848788B77C0772478B1761677D0
S113120285768476FA76D1755B766B7693750276FB
S1131212C975307651764B76FF75E3753A76CC769E
S1131222D6764277037713775B77887705784A789F
S1131232BD78BC7857798279C979EE799C7A527BE8
S1131242FD7A787BA07B137C687C947CDD7C9B7D1F
S1131252CB7D637E207E787E437FD37E257F547F41
S11312621380E67F168002804680E37F7980D67FF2
S113127204848A8349839A83AE82AC82D182D782E0
S11312828E8225836782E781188270814F81228151
S1131292BC8079805880C17FC77F2F7F457FC07E05
S11312A2DE7DE57D787D347DC37C827CF27B907C1F
S11312B2F17B917B347B117BB07A247A3A7AE97997
S11312C27779C07924798D7973795D791879D578AC
S11312D22E792C7951798A799179B6799879F37939
S11312E2377AC279937A7D7ACF7AF77A547B287BDC
S11312F2CA7BB17B0F7CEA7C9C7C167DD07C1A7EF7
S11313024D7EA67E067F607F907F4D80BC7FC78026
S1131312EF8068812E81BE817781E4810F825882B9
S1131322EE8215830783998275832D8318835583EF
S9030000FC
