S01800006275696C642F6D6963617A2F6D61696E2E73726563E5
S11300000C9449000C94E2040C94EC040C94F60453
S11300100C9400050C940A050C9414050C94D00659
S11300200C941E050C9468000C9468000C94DF0B6F
S11300300C94510B0C94AC040C94C2040C9428053D
S11300400C949B040C94230F0C9468000C9468008B
S11300500C9468000C9468000C9468000C9468007C
S11300600C94B7040C9468000C9468000C94680019
S11300700C9468000C9468000C9468000C9468005C
S11300800C9468000C9468000C94680000081C1818
S1130090141011241FBECFEFD0E1DEBFCDBF11E09D
S11300A0A0E0B1E0E4E3F1E300E00BBF02C007909D
S11300B00D92AE30B107D9F712E0AEE0B1E001C065
S11300C01D92A134B107E1F70E94C6140C9499184B
S11300D00C9400008FB7F894992708958FBF089562
S11300E0FC0182819927582F442781819927482B25
S11300F0592BCA01892F992786958695837090700C
S11301008230910559F08330910559F0892B19F407
S113011020E030E008C02CE93FEF05C022E030E0E9
S113012002C028E030E0CA0184E0989F812D99271D
S113013011248230910559F08330910559F0892BAF
S113014019F480E090E008C08CE99FEF05C082E0DC
S113015090E002C088E090E0280F391F2A5F3F4FEB
S1130160CF01820F931F0895282F9FB7F894662319
S113017049F0E82FFF27E953FE4F8081882311F0CF
S113018021E006C0E22FFF27E953FE4F608320E001
S1130190892F99278FBF822F99270895E82F8FB72A
S11301A0F894282F332790E0FF27E953FE4F8081EE
S11301B0861709F491E02FBF892F99270895882382
S11301C011F06E9A08956E980895882311F06F9A2D
S11301D008956F98089580E00E94DF00BA9ABB9852
S11301E0B99AB89A6C9A80E00E94E5006B986A9874
S11301F081E00E94DF00709A8DB18C7F8DB90895E3
S1130200282F9FB7F894E82FFF27E75CFE4F8081E3
S11302108F3F81F4E0913F02E21771F40BC0209309
S1130220310204C0FF27E75CFE4F208320933F0286
S113023020E007C025E005C0809131028F3F91F78F
S1130240EECF892F99278FBF822F992708950F9377
S11302501F93182F0FB7F89461E080E00E94B40058
S1130260882371F510930301809106018823A9F571
S113027080911501823089F588E00CC00E94EB0062
S113028080911501882349F481E08093150110922F
S11302904F018AE00E9400012AC0809161018F3FD2
S11302A031F5E0910501EE2311F11CC01092040117
S11302B004C0FF27EF59FE4F10821092050117C0AA
S11302C081E090E002C0880F991F1A95E2F720910F
S11302D01401282B209314010AC08091150188234E
S11302E0E1F6CCCF809104018F3F19F7DFCF802F47
S11302F099278FBF80E090E01F910F9108951F937D
S1130300182F81E00E94DF001FB9779BFECF8FB1C9
S113031099271F9108958F929F92AF92BF92CF9287
S1130320DF92EF92FF920F931F93CF93DF938FB7D8
S1130330F8949927C0903A02D0903B028090C00173
S11303409090C101C091A801D091A90120911E01F2
S113035030911F01EAE0AE2EB12CAC0EBD1E2A1561
S11303603B0508F459018FBF7401EC0EFD1E860194
S11303700C0F1D1F14C0C114D10419F0F8018081A1
S113038001C080E00E947F018114910411F0F70103
S1130390808321960894E11CF11C0F5F1F4FC50157
S11303A00197C817D90738F381E00E94E5009FB789
S11303B0F894C114D10431F0CC0EDD1EF601808115
S11303C08FB901C01FB8D093A901C093A801892F88
S11303D099278FBF80E090E0DF91CF911F910F911B
S11303E0FF90EF90DF90CF90BF90AF909F908F9051
S11303F008952FB7F894332750931F0140931E019B
S113040090933B0280933A027093C1016093C001C0
S11304101092A9011092A8012FBF452B29F08FB18A
S11304200E948B019927089589E00E94000180E0D1
S113043090E008958FB7F89499271092C9018FBF5F
S113044008957FB7F89462B7209121013091220179
S1130450409123015091240106B601FE0FC081B7DB
S113046092B7280F311D411D511D2F5F3F4F4F4F34
S11304705F4F290F311D411D511D04C0260F311D31
S1130480411D511D872F99278FBFCA01B9010895B6
S1130490DF92EF92FF920F931F938FB7F894282F58
S11304A03327D22E91B782B746B7981711F041FF80
S11304B002C02FBF6AC08091A7018823E1F10E9486
S11304C02102E090C301F090C4010091C501109194
S11304D0C60120913301309134014091350150918E
S11304E036016E197F09800B910B6217730784071D
S11304F0950720F01092A70171E01EC02E0D3F1D3C
S1130500401F511F8091210190912201A09123014C
S1130510B0912401281B390B4A0B5B0B273E310594
S11305204105510540F4822F223010F070E005C0DF
S113053070E082E002C070E086EE682F615000B681
S113054001FCFDCF82B7681709F46F5F2091210188
S1130550309122014091230150912401DA01C90113
S11305600196A11DB11D860F911DA11DB11D8217FC
S11305709307A407B50710F4622F609561BFDFBE2F
S1130580772319F08CE00E9400011F910F91FF90D6
S1130590EF90DF900895AFB7F894BB27E1E0E093C4
S11305A0A7016093C3017093C4018093C501909324
S11305B0C6012093330130933401409335015093A5
S11305C03601AFBF0E944802089580E88093370146
S11305D010925201109234021092300210924E0185
S11305E00895CF93DF93FC0115A6DC019E96ED01DF
S11305F01B821A82198280E886A7DF91CF91089521
S11306002F923F924F925F926F927F928F929F921E
S1130610AF92BF92CF92DF92EF92FF920F931F930C
S1130620CF93DF93CDB7DEB728970FB6F894DEBF2C
S11306300FBECDBF209058013090590140905A010F
S113064050905B01662477248824BEE4AB2EA3E893
S1130650BA2ECC24DD24EE24FF2400E010E0222D69
S1130660332D442D552D662D772D882D90E00E9435
S11306707B1629833A834B835C836D837E838F83CC
S11306809887822E932EA42EB52E2401350100E2E4
S11306900E947917A22EB32EC42ED52EC301B20107
S11306A096958795779567956A0D7B1D8C1D9D1D85
S11306B097FF05C09F776F5F7F4F8F4F9F4F60936A
S11306C058017093590180935A0190935B012896C5
S11306D00FB6F894DEBF0FBECDBFDF91CF911F914F
S11306E00F91FF90EF90DF90CF90BF90AF909F90CD
S11306F08F907F906F905F904F903F902F900895D0
S11307008FB7F8946091AC017091AD012CB53DB5F3
S113071006B602FE04C06F5F7F4F2CB53DB5992726
S11307208FBF88279927CB0177276627442755272A
S1130730622B732B842B952B0895EF92FF920F93CA
S11307401F930E9480037B018C01209162013091F0
S11307506301409164015091650180915D01909124
S11307605E01A0915F01B0916001820F931FA41FED
S1130770B51FE216F3060407150730F08217930736
S1130780A407B50758F005C082179307A407B50757
S1130790E0F5E816F9060A071B07B8F59C01AD0158
S11307A02E193F09400B510B213060E8360760E0F9
S11307B0460760E0560768F180E090E8A0E0B0E00A
S11307C0E80EF91E0A1F1B1FE0926201F0926301FA
S11307D0009364011093650180E090E8AFEFBFEFF0
S11307E0E80EF91E0A1F1B1F20503048404050409D
S11307F020935D0130935E0140935F01509360014B
S113080020E030E840E050E014C020E030E040E078
S113081050E08093620190936301A0936401B093CC
S1130820650110925D0110925E0110925F011092B9
S11308306001A901B7012CB53DB5C9018E199F0905
S113084003968417950720F0B9016D5F7F4F02C0AE
S1130850640F751F6115710511F461E070E061505A
S113086070407BBD6ABD80E186BF87B7806187BF6A
S11308701F910F91FF90EF9008950F931F930FB75F
S1130880F89411276093620170936301809364016B
S11308909093650120935D0130935E0140935F0165
S11308A0509360010E949D030FBF1F910F91089503
S11308B097B79F7D97BF90E296BF882319F08EB5B6
S11308C0806402C08EB58F7B8EBD87B7806287BF80
S11308D080E090E00895AF92BF92CF92DF92EF92C2
S11308E0FF920F931F93CF93DF93CDB7DEB7289773
S11308F00FB6F894DEBF0FBECDBF20E070E0E091EC
S11309000001F091010132E14DE65CE46FE4809175
S113091001019E2F28960FB6F894DEBF0FBECDBFFF
S1130920DF91CF911F910F91FF90EF90DF90CF90C7
S1130930BF90AF9008951F920F920FB60F9211249B
S11309408F9383B783BF00B600FCFDCF8F910F90C8
S11309500FBE0F901F90189578941F920F920FB6A8
S11309600F9211240F900FBE0F901F90189578943A
S11309701F920F920FB60F9211240F900FBE0F907B
S11309801F90189578941F920F920FB60F9211240E
S11309902F933F938F939F932FB7F894332780918E
S11309A0AC019091AD0101969093AD018093AC019F
S11309B02FBF9F918F913F912F910F900FBE0F905A
S11309C01F9018951F920F920FB60F9211240F903B
S11309D00FBE0F901F9018951F920F920FB60F9293
S11309E011240F900FBE0F901F9018951F920F9215
S11309F00FB60F9211240F900FBE0F901F901895F1
S1130A001F920F920FB60F9211240F900FBE0F90EA
S1130A101F9018951F920F920FB60F9211240F90EA
S1130A200FBE0F901F9018951F920F920FB60F9242
S1130A3011240F900FBE0F901F9018951F920F92C4
S1130A400FB60F9211240F900FBE0F901F901895A0
S1130A501F920F920FB60F9211242F933F934F932F
S1130A605F936F937F938F939F93AF93BF93EF9312
S1130A70FF9383B783BF00B600FCFDCF81B79927EE
S1130A800196AA27BB272091210130912201409190
S1130A90230150912401280F391F4A1F5B1F209303
S1130AA0210130932201409323015093240178942F
S1130AB00E944802FF91EF91BF91AF919F918F9156
S1130AC07F916F915F914F913F912F910F900FBE46
S1130AD00F901F9018950F931F93CF93DF93182FA8
S1130AE08FB7F894C82FDD270C2F61E080E00E94B7
S1130AF0B400882321F0CFBF85E090E024C080912A
S1130B0006018823A1F480911501823081F409C083
S1130B1082E080931501109206010E94EB00B89ABE
S1130B20C0981093030180E00FBF99270CC08091F7
S1130B301501882369F38FB7F89499271092C70198
S1130B408FBF81E0F1CFDF91CF911F910F91089575
S1130B501F9383E00E946B059927182F882319F0AF
S1130B6083E00E942701812F99271F910895CF9236
S1130B70DF92EF92FF920F931F93CFB6F894DD2488
S1130B800E940003DC01CB0166E470E00E940818B7
S1130B905BE0E52EF12CE80EF91EF0923D02E092A6
S1130BA03C020E94800300271127A80197010E949C
S1130BB03D04CFBE1F910F91FF90EF90DF90CF9037
S1130BC00895CF92DF92EF92FF920F931F93CF93EA
S1130BD0DF938C01F62E6A01E22E8FB7F894C82FAA
S1130BE0DD2760E080E00E94CE00882321F0CFBFA3
S1130BF080E090E01EC0CFBF0F0D111D802F8068D4
S1130C000E947F01F82E16950795802F807C0E9404
S1130C107F010E2D0AC0EE2DFF27E01BF109EC0D1C
S1130C20FD1D80810E947F0101500023A1F78F2DBB
S1130C309927DF91CF911F910F91FF90EF90DF9053
S1130C40CF900895CF93DF93CDB7DEB72C970FB62F
S1130C50F894DEBF0FBECDBF8FB7F894282FAE0136
S1130C604F5F5F4FDA01EDECF1E088E001900D9207
S1130C708150E1F780915301909154018987892F24
S1130C8099278A8780919A0190919B018B87892F5C
S1130C9099278C872FBF2CE060E080E691E00E94CA
S1130CA0E1052C960FB6F894DEBF0FBECDBFDF91E1
S1130CB0CF9108951F93CF93DF93182F8FB7F89494
S1130CC0C82FDD2760E080E00E94CE00882321F059
S1130CD0CFBF80E090E005C0CFBF812F0E947F018D
S1130CE09927DF91CF911F910895EF92FF920F936F
S1130CF01F93CF93DF93182F7B01042F8FB7F894A2
S1130D00C82FDD2760E080E00E94CE00882321F018
S1130D10CFBF80E090E014C0CFBF1064812F99272B
S1130D2090939F0180939E010E947F01182F402F72
S1130D305527B70180E090E00E94F901812F99279F
S1130D40DF91CF911F910F91FF90EF900895C0987C
S1130D5060911C0170911D0141E08FE30E947506B2
S1130D60089582E090E0909349018093480181E0E6
S1130D708093520120E030E080910301843011F42B
S1130D8021E030E0232B29F484E00E946B058823C2
S1130D9019F40E94A706089584E00E94270108958B
S1130DA01F920F920FB60F9211242F933F934F93DC
S1130DB05F936F937F938F939F93AF93BF93EF93BF
S1130DC0FF938091480190914901019749F482E091
S1130DD090E090934901809348010E94B10605C0B8
S1130DE080914E018F5F80934E01FF91EF91BF91EF
S1130DF0AF919F918F917F916F915F914F913F91AF
S1130E002F910F900FBE0F901F9018951F938091F4
S1130E101401882309F04BC0109103011F3F09F00E
S1130E2046C060E00E94CE00882309F440C081E0FF
S1130E308093D601809138018823E1F11092D60184
S1130E4085E090E045C0923069F5C09A8091040134
S1130E5020E030E08F3F11F421E030E0232BE9F46F
S1130E60109306018F3F19F42FEF30E00DC0282FA7
S1130E703327F901EF59FE4F8081809304018F3F9E
S1130E8011F410930501108320934F0181E08093A6
S1130E9015018AE00E94000105C01093060110921A
S1130EA0150111C080911501882369F00FC081E0FC
S1130EB090E00EC08091060190911501882319F2EB
S1130EC0923021F0EFCF80E00E94DF0080E090E0DC
S1130ED01F9108951F93CF93DF939FB7F894C92F61
S1130EE0DD271C2F90910301981721F0CFBF81E0DB
S1130EF090E03AC08FEF80930301309114013323C3
S1130F00F1F48FB7F89499271092C7018FBF0E940C
S1130F100607CFBF11C02093030181E090E002C017
S1130F20880F991F4A95E2F780953823309314016E
S1130F3088E00E9400011FBF80E090E015C080E0BF
S1130F4065E0E32FFF270E94FC17292F492F55271F
S1130F50CF01042E02C0959587950A94E2F780FD8F
S1130F60DACF822F8F5FEFCFDF91CF911F9108955A
S1130F701F93CF93DF938FB7F894C82FDD271C2FCF
S1130F808091480190914901892B29F484E00E94C1
S1130F906A07CFBF1EC01092520180914E01882370
S1130FA011F0B79904C00E9908C0882319F0815034
S1130FB080934E010E94B1060BC081E090E09093B3
S1130FC049018093480110924E0184E00E946A070F
S1130FD01FBFDF91CF911F9108950E94E502C09A2F
S1130FE0C09888E00E945A0688E00E945A06C09A77
S1130FF084E00E946A070E94B8070895FF920F9345
S11310001F93CF93DF93F82E8B018FB7F894C82FDB
S1131010DD2760E080E00E94CE00882321F0CFBF6E
S113102080E090E00CC0CFBF8F2D0E947F01812F04
S113103099270E947F01802F0E947F019927DF91C9
S1131040CF911F910F91FF9008951F931FB7F894AC
S113105080914D01882319F460E070E009C060E0DC
S113106080913902882309F461E081E068277727B9
S113107080915501882319F480E090E00AC090E043
S11310808091CC01882309F491E081E09827892F8D
S11310909927762F6627770F770F770FA4E0880FAD
S11310A0991FAA95E1F7826E9262682B792B81E1F0
S11310B00E94FE07812F99278FBF1F9108958FB734
S11310C0F89499276091D5018FBF85E0689FB0019E
S11310D01124625D7E4F706488E10E94FE070895CA
S11310E0EF92FF921F93CF93DF93E0905601F0901D
S11310F05701F70182A59927182F882309F41FE1C6
S1131100C09880914C01811749F0612F77276F7146
S11311107070606E706885E10E94FE0710934C0148
S1131120F70110818FB7F894C82FDD2760E080E0C5
S11311300E94CE00882311F0CFBF12C0CFBF8EE330
S113114090E090939F0180939E018EE30E947F0123
S11311501150412F552760E070E0C7010E94F9014A
S1131160DF91CF911F91FF90EF9008950F931F93FC
S1131170CF93DF93EC010FB7F89411270E9470000E
S1131180FC018FE380830FBF109237021092360266
S113119061E082E00E94B400882319F085E090E0C9
S11311A072C08091D7018F5F8093D70181508B8368
S11311B08FB7F894082F112762E081E00E94CE00D7
S11311C0882329F40FBF0E941A0281E05BC08FB705
S11311D0F894992724E02093C8018FBFD093A601E7
S11311E0C093A5010FBFFE01319681812981992702
S11311F0982F88273327822B932B80729C7C89839A
S1131200892F992781832981982F8827332721645F
S1131210822B932B8983892F992781831CA618A657
S113122019A619AA18AA1FA680E88EA761E06093E0
S1131230CB014091A5015091A6018FB7F894282FB6
S1131240332780911601909117018830910511F090
S1131250019711F02FBF15C082E090E09093170121
S113126080931601609340025093570140935601B6
S1131270109220012FBF0E94A805882311F40E9418
S1131280700880E09927DF91CF911F910F91089505
S1131290CF93DF93DA01422F2D3118F082E090E0F2
S11312A05EC0ED018B876E83872F99278F832FB7BD
S11312B0F894332780915301909154012FBFFD017D
S11312C08483892F992785832FB7F89433278091B6
S11312D00701909108012FBF8887892F9927898753
S11312E03196818129819927982F88273327206473
S11312F03868822B932B8983892F99278183435FB5
S11313004C934D5080910A01882359F010920A01A0
S1131310642FCD010E94B6089927282F8823A9F4A9
S113132017C0842F99279093A4018093A301B093AD
S11313301B01A0931A018EE00E94000180910A0112
S1131340882349F489E090E00AC08FEF80930A0172
S1131350822F992704C010925C0180E090E0DF9115
S1131360CF91089510920201E091AA01F091AB018E
S1131370309721F08091350280FF08C081E080938E
S11313800201089581E00E940001089520812D50FA
S1131390332767817727762F662786819927682BDD
S11313A0792BAF0183850E944809882359F7089552
S11313B0CF93DF9380910201882391F4C091AA0115
S11313C0D091AB01C617D70759F41092AB01109214
S11313D0AA010E94B209C656D14011F41092A2018A
S11313E0DF91CF910895AF92BF92CF92DF92EF92A7
S11313F0FF920F931F935B016C016091B60161FF33
S113140020C02091AE013091AF014091B0015091C4
S1131410B101E090B201F090B3010091B4011091D8
S1131420B501D601C501821B930BA40BB50B8E1518
S11314309F05A007B10728F0EEEAF1E0A0E0B0E0D4
S113144022C0E7EBF1E06091BF0161FF74C020911D
S1131450B7013091B8014091B9015091BA01E090BF
S1131460BB01F090BC010091BD011091BE01A21A14
S1131470B30AC40AD50AAE14BF04C006D10608F4E0
S11314805AC0A1E0B0E060FF04C080858D7F8087F2
S113149008C02E0D3F1D401F511F208331834283FE
S11314A05383A13009F047C020910E0130910F0100
S11314B02F5F3F4F30930F0120930E018091A201C3
S11314C08823C9F520937301832F99278093720190
S11314D046E651E08FEF80936C0180936D0186E0C6
S11314E0809371018091AA019091AB01892B19F528
S11314F05093AB014093AA018FE0809366018091E1
S113150002018823A9F01092020122E06FEF7FEF1D
S113151086E00E9448099927282F882349F081E012
S1131520809302011092AB011092AA01222319F4B4
S113153081E08093A2018DE00E9400011F910F9130
S1131540FF90EF90DF90CF90BF90AF9008951F93DE
S1131550182F81E090E09093170180931601109268
S113156038010E9406078FB7F89499271093100149
S11315708FBF84E00E9400011F91089561E081E023
S11315800E94B4008823E9F48FB7F894282F3327F6
S11315908091110190911201892B11F02FBF20C06D
S11315A081E090E090931201809311012FBFDD9AA6
S11315B00E94800324E130E040E050E00E943D04BA
S11315C00FC062E081E00E94CE00882319F089E018
S11315D090E0089561E081E00E94CE00882319F034
S11315E080E090E0089585E090E008951F93CF9304
S11315F0DF938FB7F894C82FDD271C2F8091160135
S1131600909117010897C9F489E00E945A0683E073
S11316100E946A07C09A81E090E09093170180933A
S113162016018FB7F894992723E0209310018FBFF8
S113163084E00E940001CFBF30C0C0988091400276
S1131640882311F085E001C084E00E945A0683FDDE
S113165009C080E00E945A0683FF04C085E090E040
S113166020E003C083E090E021E090931701809391
S11316701601C09A1FBF222341F01092200183E07B
S11316800E946A070E94B70508C00E94800320E4F4
S113169031E040E050E00E943D04DF91CF911F9182
S11316A0089578941F920F920FB60F9211241F93EE
S11316B02F933F934F935F936F937F938F939F9356
S11316C0AF93BF93EF93FF9387B78F7E87BF7894D1
S11316D01FB7F89480915D0190915E01A0915F0124
S11316E0B09160010097A105B10509F051C0809146
S11316F01601909117018530910561F186309105AD
S113170030F48330910549F0049781F51AC087308D
S11317109105F1F0089751F514C0869B0FC084E041
S113172090E090931701809316010E94800327E0B4
S113173030E040E050E00E943D0418C00E94B7052C
S113174015C00E94A805882389F40E94F60A0EC0D9
S113175080E00AC089E00E945A0681E00E94580491
S113176083E00E946A0787E00E94A70A8091110122
S113177090911201019771F482E090E0909312012C
S113178080931101DE98DE9A80E00E94270102C056
S11317900E949D03812F99278FBFFF91EF91BF91E5
S11317A0AF919F918F917F916F915F914F913F91F5
S11317B02F911F910F900FBE0F901F901895789442
S11317C01F920F920FB60F9211242F923F924F92B5
S11317D05F926F927F928F929F92AF92BF92CF92BD
S11317E0DF92EF92FF920F931F932F933F934F93A8
S11317F05F936F937F938F939F93AF93BF93CF9395
S1131800DF93EF93FF93C6B5D7B58FB7F894282E1F
S11318100E9480039B012C1B3D0B442755272B0161
S11318203C01421A530A640A750A80911601909188
S113183017018530910521F0069709F0E0C0BFC07B
S113184086E090E0909317018093160131E0332EE7
S1131850309251011092180180E00E945804E091E6
S11318605601F091570141AABB27A72D962D852D2E
S113187080ABC301AA27BB2787A7872D9927AA274F
S1131880BB2786A7E0915601F091570185A58823CF
S113189009F484C06081655077274F01860E971E36
S11318A0F4012081E1808281A3809927AA27BB27A4
S11318B0BA2FA92F982F8827332744275527522F2B
S11318C0442733272227FF24002711278701FF24D9
S11318D0EE242E293F29402B512BBB24CC24DD247C
S11318E02A293B294C295D29822B932BA42BB52B28
S11318F084199509A609B7098383292F3A2F4B2FF9
S1131900552722839D014427552721838B2F99270F
S1131910AA27BB278083C09824E0A40180E090E03C
S11319200E94E105C09AF4012081E1808281A380B4
S11319309927AA27BB27BA2FA92F982F882733279F
S113194044275527522F442733272227FF240027D3
S113195011278701FF24EE242E293F29402B512BE8
S1131960BB24CC24DD242A293B294C295D29822B44
S1131970932BA42BB52B840D951DA61DB71D838316
S1131980292F3A2F4B2F552722839D014427552772
S113199021838B2F9927AA27BB278083E0915601A7
S11319A0F0915701818185FF02C03092380183E0B4
S11319B00E946A0787B78F7E87BF84997AC0109286
S11319C0510181E00E945804E0915601F0915701C1
S11319D0818185FF0FC087E090E090931701809389
S11319E016010E94800320E031E040E050E00E94B4
S11319F03D0403C080E00E94A70A849B5AC08091E2
S1131A001801882391F580915101882371F511E023
S1131A10109351010E94580480B320913002283061
S1131A2098F4E0913402E20FFF27E770F070EE0FB4
S1131A30FF1FEE0FFF1FE452FE4F4082518262826D
S1131A4073822F5F2093300210931801D093A10169
S1131A50C093A00184992DC0992764E09695879539
S1131A606A95E1F7182F117001C010E080915101BF
S1131A708130F9F4109251010E9458041092180117
S1131A801123B9F48091A0019091A101C81BD90B35
S1131A902A9778F480913002882319F0815080933A
S1131AA030028091560190915701009711F00E94E5
S1131AB0F1022FBEFF91EF91DF91CF91BF91AF91D2
S1131AC09F918F917F916F915F914F913F912F9152
S1131AD01F910F91FF90EF90DF90CF90BF90AF9048
S1131AE09F908F907F906F905F904F903F902F903A
S1131AF00F900FBE0F901F901895EF92FF920F93C7
S1131B001F93CF93DF938B0180919E0190919F014E
S1131B1086FF40C18F7B8F3309F08EC1C0911C01B9
S1131B20D0911D01588150934A01809148019091B0
S1131B3049018530910509F443C08630910509F4C3
S1131B408AC0029709F01FC185E090E09093490193
S1131B508093480140913701852F99270196242FBE
S1131B603327281739074CF1B79906C00E9904C0DA
S1131B70451B41504093370140914A014A32E8F4F1
S1131B804423A1F0BE016F5F7F4F483018F047E057
S1131B9050E007C086E090E09093490180934801AB
S1131BA0552780E090E00E94F90146C1109252014D
S1131BB0C09A84E00E946A07E3C00E94ED073CC11A
S1131BC086E090E09093490180934801809155010B
S1131BD0882309F439C08091CC018823A9F589812F
S1131BE085FF32C08F814E812FB7F89433276091DF
S1131BF09A0170919B012FBF9927982F8827552709
S1131C00842B952B8617970759F08F812E8199275E
S1131C10982F88273327822B932B8F5F9F4FA1F414
S1131C2089818770813081F4C09AC0988AE00E94CB
S1131C305A06C09AC09840914A0147502896BE015E
S1131C408FE30E947506F8C040914A01475055271A
S1131C502896BE01A6CFC09A80914E01882339F4FC
S1131C6084E00E946A0780914E01882311F0B7999D
S1131C700AC00E9B08C090913002992321F08091F4
S1131C804A018B3038F480911C0190911D010E940F
S1131C90F1023DC0913001F5E0913402FF27EE0FCF
S1131CA0FF1FEE0FFF1FE452FE4F2081318142815E
S1131CB05381E0911C01F0911D0121ABBB27A52F9D
S1131CC0942F832F80ABCA01AA27BB2787A7252F70
S1131CD033274427552726A7809134029927019654
S1131CE068E070E00E941C188093340280913002F6
S1131CF0815080933002882351F080911C0190918F
S1131D001D010E94F102109234021092300280915F
S1131D104A01FE01E80FF11D808187FF31C0012BCC
S1131D2079F169816770E0911C01F0911D016230C5
S1131D3019F5A0915601B0915701109709F18091BE
S1131D401601909117010797D9F4ED019B818381C6
S1131D509817B1F487B78F7E87BF908181E08CA7F5
S1131D60E90FF11D8291319688A780818F7789A729
S1131D7080E00E94A70A04C0613011F48BE02AC0FD
S1131D800E94B80759C010925201C09A84E00E9480
S1131D906A0752C08E3309F04FC0C09A8091160171
S1131DA0909117010897C9F4C09889E00E945A06D7
S1131DB0C09A83E00E946A0781E090E09093170143
S1131DC0809316018FB7F894992723E0209310018C
S1131DD08FBF84E00E9400012FC0809140028823BD
S1131DE049F484E090E090931701809316010E94D7
S1131DF0F60A22C083E00E946A0783E090E0909391
S1131E001701809316010E940003DC01CB0166E3F5
S1131E1071E00E9408184BE0E42EF12CE80EF91E44
S1131E20F0923201E09231010E94800300271127D1
S1131E30A80197010E943D04DF91CF911F910F915A
S1131E40FF90EF9008951F920F920FB60F921124F6
S1131E502F933F934F935F936F937F938F939F93AE
S1131E60AF93BF93EF93FF932FB1E091C001F09133
S1131E70C101309739F08091A8019091A901E80F30
S1131E80F91F20838091A8019091A9010196909354
S1131E90A9018093A80180E00E94E50040911E0101
S1131EA050911F018091A8019091A9018417950771
S1131EB018F40E948B011CC06091C0017091C10193
S1131EC080913A0290913B021092C1011092C0019C
S1131ED010923B0210923A0210921F0110921E01BE
S1131EE01092A9011092A8012FB120E00E947D0D4B
S1131EF0FF91EF91BF91AF919F918F917F916F91DE
S1131F005F914F913F912F910F900FBE0F901F90B3
S1131F101895AF92BF92CF92DF92EF92FF920F93F8
S1131F201F93CF93DF93CDB7DEB7A8970FB6F8947E
S1131F30DEBF0FBECDBF873009F457C1883098F497
S1131F40833009F4D8C0843038F4813009F450C0A7
S1131F50823008F067C022C0853009F423C186307E
S1131F6008F03CC1CEC08B3009F46BC28C3038F41D
S1131F70893009F42FC28A3008F04FC270C18D3005
S1131F8009F430C48D3008F4F8C38E3009F0D0C49D
S1131F90A5C42FBFCDC4C601B50121C480913502AB
S1131FA0882309F4C5C440E051E090913502852F9F
S1131FB08923C1F0E42FFF27EE0FFF1FE655FE4FE4
S1131FC02081318111821082852F809598239093EE
S1131FD03502442339F42656314009F0A6C4109240
S1131FE0A201A3C44F5F483008F0A2C4550FDDCF4F
S1131FF010910201E12FFF27EE0FFF1FE655FE4F60
S1132000E080F180118210820E94B209112309F04C
S11320108FC456E6E51651E0F50609F089C410921E
S1132020A20186C40FB7F894112781E00E945804D6
S113203061E0E62EF12CF0921701E0921601109265
S113204018011092380110924C010FBF0FB7F89489
S113205011270E94E502F0924901E0924801109292
S1132060520189B78F7B89BF80E488BF8AB78062B9
S11320708ABF8AB78F7E8ABF89B7806489BF0FBF42
S11320808FB7F894082F11278091110190911201B4
S1132090049719F483E00E945A060FBF0FB7F8940F
S11320A01127C09A80E00E946A070FBF8FB7F89487
S11320B0992722E02093C8018FBF0E9421026093D8
S11320C0B7017093B8018093B9019093BA018AEF74
S11320D090E0A0E0B0E08093BB019093BC01A0939A
S11320E0BD01B093BE018091BF018E7F8260809359
S11320F0BF018DE0B1C08FB7F89499271092C80141
S113210072C08FB7F8949927F09010018FBF63E0E5
S113211081E00E94CE00882359F10FB7F89411276B
S1132120109217011092160187B78F7E87BF87B769
S11321308F7D87BF83E00E946A07C09A0FBF0FB7E5
S1132140F894112710924901109248010E94E50267
S1132150C09A89B78F7B89BF0FBF1092120110926A
S11321601101DE98DD98DE9A83E00E94000107C029
S11321708FB7F894992722E02093C8018FBF00916C
S1132180A5011091A6010E941A0280913602909135
S11321903702892B09F0CCC38FEF80930A014F2DAE
S11321A0B801BAC38FB7F894282F3327122F809120
S11321B03E02882309F0EDCE81E080933E028091B7
S11321C0110190911201049721F481E00E942701EA
S11321D003C086E00E9400011FBFAAC38FB7F89412
S11321E0992710923E028FBFA3C38FB7F894282F6C
S11321F0332780911301882309F0CBCE2FBF80B3FE
S1132200992756E0969587955A95E1F7182F1170FE
S113221090919C0180919D018917D9F01917C9F4F7
S113222084E090E090931201809311018FB7F894A9
S1132230992721E0209313018FBF60E070E08DE1C6
S11322400E94FE070E942206C09AC09882E00E9463
S1132250000110939D0187E00E94000169C38FB7BC
S1132260F8949927109103018FBF123009F465C0C7
S1132270133030F4112359F0113009F059C348C018
S1132280133009F474C0143009F052C3A0C0C098CC
S11322908FB7F894082F11278091110190911201A2
S11322A00297A1F583E090E09093120180931101CD
S11322B068E170E08DE10E94FE0781E080939C015B
S11322C01092130180B3992746E0969587954A9515
S11322D0E1F78170907080939D0187E00E94000176
S11322E081E00E945A066FE772E08CE10E94FE07CB
S11322F00E945F080E94250866E57AE287E10E9451
S1132300FE076FEF70E885E10E94FE070FBF10C360
S1132310C09886E00E945A060E945F080E94250821
S11323200E942206C09AC09883E00E945A06C09A6E
S113233081E00E946A0786E08FCFC0988FB7F89437
S1132340082F112760E080E00E94CE00882311F05E
S11323500FBF0AC00FBF83E50E947F0180E00E9487
S11323607F0180E00E947F01C09A82E02DC08FB778
S1132370F8949927209116018FBF243039F0283022
S113238041F0223001F50E947008D2C20E94F60A80
S1132390CFC2C09889E00E945A06C09A83E00E9486
S11323A06A078FB7F894992721E030E0309317013A
S11323B0209316018FBF8FB7F894992710931001BB
S11323C08FBF84E049CF83E00E946A07B1C20E94B4
S11323D0A706AEC20FB7F894112740911E01509181
S11323E01F016091C0017091C10180913A029091E6
S11323F03B021092C1011092C00110923B02109254
S11324003A0210921F0110921E011092A90110921B
S1132410A80120E00E947D0D79CF2FB7F8943327CF
S113242080914F018093060182E0809315012FBFB4
S113243080910601882309F07BC2B89AC09888E08D
S11324400BCFA0911C01B0911D01DC909D012D0DBD
S1132450311DF9018081881F8827881FFD0183A70A
S1132460F90180818F77FD0181A721503040F90166
S11324708081FD0180A7A0911C01B0911D01FD0187
S113248032818FB7F894992720914D018FBF222371
S113249009F490C0832F99279695879596958795EB
S11324A0837090708230910541F5878146812FB702
S11324B0F894332760919A0170919B012FBF99275B
S11324C0982F88275527842B952B8617970719F45F
S11324D081E090E06CC0FD018781268140E050E0FE
S11324E09927982F88273327822B932B8F5F9F4F11
S11324F011F441E050E0CA015AC0039709F034C115
S11325009E012F5F3F4F4DEC51E088E0FA010190AE
S1132510AF01F90101929F018150C1F79E012F5D26
S11325203F4FAE014F5F5F4F88E0FA010190AF016A
S1132530F90101929F018150C1F79E01275F3F4F2E
S1132540AE014F5D5F4F88E0FA010190AF01F901E0
S113255001929F018150C1F79E012F5E3F4FAE0152
S1132560475F5F4F88E0FA010190AF01F9010192E2
S11325709F018150C1F79E01275E3F4FAE014F5E20
S11325805F4F88E0FA010190AF01F90101929F01C8
S11325908150C1F748E050E0BE01675E7F4FCD0136
S11325A006960E948518892B09F0DEC003C0882393
S11325B009F4DAC0FCE0FD1508F0D6C0E0901C0177
S11325C0F0901D01F7012281822F992716E096953C
S11325D087951A95E1F7039719F468E070E002C053
S11325E062E070E0822F9927969587959695879556
S11325F083709070039719F488E090E002C082E041
S113260090E026E030E0E20EF31E40E050E020E0EF
S113261030E0F701E80FF91F8AEF9FEFE80EF91E8B
S113262005C08191480F511D2F5F3F4F2617370773
S1132630C4F3F70163818FEF809338028FB7F89466
S1132640782F20E030E0E5E2F1E080819181841789
S1132650950731F48281861709F47FC020933802EC
S11326602F5F3F4F33962430310579F77FBF909128
S113267038023FB7F8949F3F21F0809119018917E0
S113268099F420911901822F9927FC01EE0FFF1F65
S1132690E80FF91FEB5DFE4F5183408362832F5F88
S11326A02370209319010CC0892F9927FC01EE0F88
S11326B0FF1FE80FF91FEB5DFE4F518340836283D8
S11326C0832F99278FBF0FB7F8941127C7010E9452
S11326D07000FC0190810FBFF70183A5882309F4E2
S11326E03FC09F3309F03CC0878146812FB7F894DF
S11326F0332760910701709108012FBF9927982F04
S113270088275527842B952B8617970759F087819F
S113271026819927982F88273327822B932B8F5F25
S11327209F4FF1F4F70183858630D1F4FFE0DF1683
S1132730B9F4D7011D96F701858580FF02C0DA98A8
S113274001C0DA9A8C9181FF02C0D99801C0D99A4C
S11327508C9182FF04C0D89803C07FBF01C0D89A6F
S1132760F0921D01E0921C018FB7F8949927109202
S113277052018FBF0E94B807DBC080914B018823B0
S113278061F52091D8013091D9014091DA0150913D
S1132790DB01EFB7F894FF276091C3017091C40186
S11327A08091C5019091C601E0903301F09034010D
S11327B000913501109136016E0D7F1D801F911F10
S11327C0EFBF2093D8013093D9014093DA0150939D
S11327D0DB0110924B010E94CB020E9421020E9455
S11327E0F309A6C00E9421025B016C018FB7F89423
S11327F099271092A7018FBF8091B60181FF25C050
S11328008091AE019091AF01A091B001B091B1015E
S1132810A6019501281B390B4A0B5B0BE090B20112
S1132820F090B3010091B4011091B501E21AF30ADA
S1132830040B150B3FEFE3163FEFF3063FEF0307DF
S11328403FE7130711F061E009C08FEFE82E8FEF27
S1132850F82E8FEF082F8FE7182F60E08091BF01CB
S113286081FF21C08091B7019091B801A091B90175
S1132870B091BA01A6019501281B390B4A0B5B0BD9
S1132880DA01C9012091BB013091BC014091BD0125
S11328905091BE01281B390B4A0B5B0B2E153F05CB
S11328A0400751072CF0662309F442C0A8019701A0
S11328B012161306140615060CF06DCB2093D801DE
S11328C03093D9014093DA015093DB0181E0809386
S11328D04B01C601B5010E94CB022AC090915C0154
S11328E080910A01981721F190930A019923C9F460
S11328F000911A0110911B016091A301C8010E946B
S1132900B608482F5527442399F08FEF80930A0186
S113291060911A0170911B01F80183850E94D80906
S113292007C08FEF80930A0103C0550F41E03DCBF0
S1132930A8960FB6F894DEBF0FBECDBFDF91CF913E
S11329401F910F91FF90EF90DF90CF90BF90AF90C9
S11329500895809131028F3FB1F0282F3327F90178
S1132960E75CFE4F8081809331028F3F11F48093A6
S11329703F028FEF80832F3F31F0822F0E94890F17
S113298081E090E0089580E090E008951F93CF9354
S1132990DF93CDB7DEB7E0970FB6F894DEBF0FBE76
S11329A0CDBF1FB7F8944FE050E06FEF70E089E3BC
S11329B091E00E9492188FEF8093310280933F023E
S11329C081E08EBD88E080BF83E083BF8CB59DB578
S11329D04AE72CB53DB52817390708F4415044237C
S11329E011F0C901F6CF92B782B78917E9F32CB574
S11329F03DB592B782B78917E9F38CB59DB5821BB3
S1132A00930B4096B5E096958795BA95E1F7909328
S1132A1033028093320213BE83B78EBD8EB580BF5E
S1132A2012BE1DBC1CBC8FEF86BF86B780937C0092
S1132A3080B7992787709070892BD1F7D29AD19A51
S1132A40D09ADA9AD99AD89A15BA8FEF84BBD498C7
S1132A50DC981DBC1CBC87B7846087BF8EB5887F9B
S1132A6084608EBD0E94A9148823E1F78FEF8093C0
S1132A705001E5E2F1E08FEF9FEF918380831282B2
S1132A80339621E0E133F207C1F70E94000360931B
S1132A90D70180910001909101010196AA27BB27DB
S1132AA08093580190935901A0935A01B0935B010C
S1132AB080B7886080BF8BE083BF86EE81BF87B715
S1132AC0826087BF0E9448028CEF91E090931D01C1
S1132AD080931C018E98B89A8C988FEF8093610133
S1132AE01092C7011092C8011092C9011092CA0134
S1132AF0B89AD69AD59A8FB7F89499272091070156
S1132B00309108018FBF30939B0120939A010E945A
S1132B106B0429A73AA74BA75CA76DA77EA78FA72D
S1132B2098ABDE019196FE01B99688E001900D9272
S1132B308150E1F7DE015196FE01B19688E00190E3
S1132B400D928150E1F7DE015996FE01719688E0FD
S1132B5001900D928150E1F7ADECB1E0FE01799660
S1132B6088E001900D928150E1F780910901992745
S1132B7090935401809353018FE18093C2018AE1C1
S1132B808093D5010E946B0429A73AA74BA75CA7A1
S1132B906DA77EA78FA798ABDE019196FE01B9962B
S1132BA088E001900D928150E1F7DE011196FE015B
S1132BB0B19688E001900D928150E1F7DE011996FB
S1132BC0FE01319688E001900D928150E1F7ADEC61
S1132BD0B1E0FE01399688E001900D928150E1F751
S1132BE0ADECB1E0FD0137969C9180818D9390838B
S1132BF0319781E0E03DF807B9F781E080934D011A
S1132C0010923902809355011092CC010E94A914AC
S1132C108823E1F7812F99278FBF78940E94BE0AF9
S1132C208FB7F894482F55274BC087B799278370DF
S1132C309070892B19F4E5E0F0E013C080B7992770
S1132C4087709070892BD1F781B792B7891B8C302C
S1132C5030F082B7853F18F4E3E0F0E002C0E2E030
S1132C60F0E087B7887BC1F480917D008B7FA1F46D
S1132C706E9912C08AB190919A00892B887161F47F
S1132C808091740082FD08C0379B03C081E090E00E
S1132C9005C085E090E002C080E090E025B78E1783
S1132CA008F4E82FFF27E457FF4FE491237E2062C6
S1132CB0E22BE5BF78948895F89485B78F7D85BF1E
S1132CC0809131028F3F09F4B0CF282F3327F901C7
S1132CD0E75CFE4F8081809331028F3F11F4809333
S1132CE03F028FEF80832F3F09F49FCF4FBF822F86
S1132CF00E94890F95CFACE2B0E0E1E8F6E10C94D4
S1132D004E18222E332E442E552E662E772E882EC4
S1132D10992EFE013196A8E01192AA95E9F729822D
S1132D203A824B825C826D827E828F829886FE011B
S1132D303996B8E01192BA95E9F7A986BA86CB8696
S1132D40DC86ED86FE860F87188B89819A81AB819C
S1132D50BC8189A79AA7ABA7BCA77C018D018FEF83
S1132D609FEFA0E0B0E0E822F9220A231B2389A503
S1132D709AA5ABA5BCA51D014424552489859A8533
S1132D80AB85BC858DA39EA3AFA3B8A75C016D01E1
S1132D908FEF9FEFA0E0B0E0A822B922CA22DB2285
S1132DA08DA19EA1AFA1B8A53D0188249924C80195
S1132DB0B701A60195010E942F1869A37AA38BA3DA
S1132DC09CA3C801B701A40193010E942F187B01A1
S1132DD08C01C201B101A60195010E942F185B016B
S1132DE06C01C201B101A40193010E942F183B019F
S1132DF04C01EA0CFB1C0C1D1D1D89A19AA1ABA161
S1132E00BCA19D01442755272E0D3F1D401F511F76
S1132E102A153B054C055D0540F480E090E0A1E0F7
S1132E20B0E0680E791E8A1E9B1ECA01AA27BB2722
S1132E30860D971DA81DB91D8D8F9E8FAF8FB8A3CA
S1132E40A9013327222789A19AA1ABA1BCA1A07013
S1132E50B070280F391F4A1F5B1F298F3A8F4B8F81
S1132E605C8FA98CBA8CCB8CDC8CED8CFE8C0F8D9A
S1132E7018A1FE01719698E011929A95E9F7ED8AEE
S1132E80FE8A0F8B188F2D813E814F8158856DA14D
S1132E907EA18FA198A50E942F183B014C012D857E
S1132EA03E854F85588969A57AA58BA59CA50E9466
S1132EB02F182D893E894F89588D260F371F481F9B
S1132EC0591F260D371D481D591D2D8B3E8B4F8BC9
S1132ED0588F6D887E888F88988C2A2D3B2D4C2D99
S1132EE05D2D662D772D882D992DE2E1AC960C94FD
S1132EF06A18A0E1B0E0EFE7F7E10C944E18222E37
S1132F00332E442E552E662E772E882E992E00238E
S1132F1009F466C088E0FE01319611928A95E9F7BA
S1132F2029833A834B835C836D837E838F82988766
S1132F30E0E2E01B1E16CCF52D813E814F815885C1
S1132F40602F772767FD7095DA01C901062E04C04A
S1132F50B695A795979587950A94D2F78D879E87FE
S1132F60AF87B88B04C0220F331F441F551FEA9547
S1132F70D2F789819A81AB81BC8104C0B695A795AB
S1132F80979587956A95D2F7282B392B4A2B5B2B7B
S1132F9029873A874B875C8729843A844B845C84ED
S1132FA06D847E848F8498881BC01D861E861F8630
S1132FB0188A2E2F332727FD3095309521953F4FC2
S1132FC08D819E81AF81B88504C0B695A7959795EC
S1132FD087952A95D2F789879A87AB87BC87DCCFF8
S1132FE0222D332D442D552D662D772D882D992D89
S1132FF0E2E160960C946A18991B79E004C0991F69
S1133000961708F0961B881F7A95C9F7809508953E
S1133010AA1BBB1B51E107C0AA1FBB1FA617B707FA
S113302010F0A61BB70B881F991F5A95A9F7809516
S11330309095BC01CD01089597FB092E07260AD06F
S113304077FD04D0E5DF06D000201AF47095619571
S11330507F4F0895F6F7909581959F4F0895629F4D
S1133060D001739FF001829FE00DF11D649FE00D7C
S1133070F11D929FF00D839FF00D749FF00D659FDD
S1133080F00D9927729FB00DE11DF91F639FB00DDC
S1133090E11DF91FBD01CF01112408952F923F9224
S11330A04F925F926F927F928F929F92AF92BF9254
S11330B0CF92DF92EF92FF920F931F93CF93DF9300
S11330C0CDB7DEB7CA1BDB0B0FB6F894DEBF0FBE5D
S11330D0CDBF09942A88398848885F846E847D84AA
S11330E08C849B84AA84B984C884DF80EE80FD80AC
S11330F00C811B81AA81B981CE0FD11D0FB6F89422
S1133100DEBF0FBECDBFED010895FB01DC0104C09D
S11331108D910190801921F441505040C8F7881BCB
S1133120990B0895DC0101C06D9341505040E0F7C4
S10731300895FFCF2C
S1113134010001FFFFFFFF010022FFFFFF006B
S9030000FC
